{"abi":[{"type":"function","name":"SPXVRFY_ID","inputs":[],"outputs":[{"name":"","type":"bytes32","internalType":"bytes32"}],"stateMutability":"view"}],"bytecode":{"object":"0x60d961004c600b8282823980515f1a6073146040577f4e487b71000000000000000000000000000000000000000000000000000000005f525f60045260245ffd5b305f52607381538281f3fe73000000000000000000000000000000000000000030146080604052600436106032575f3560e01c806303d6ffaa146036575b5f5ffd5b603c6050565b60405160479190608c565b60405180910390f35b7f36f67a7adfde9a6f646d67191d4b88fc9c97e7366e8eb3da392c6893a13b5d025f1b81565b5f819050919050565b6086816076565b82525050565b5f602082019050609d5f830184607f565b9291505056fea26469706673582212206ddb0ec4f9216814c997b30220a2e742654a131adf149a449b0e9b48cf86a38464736f6c634300081c0033","linkReferences":{}},"methodIdentifiers":{"SPXVRFY_ID()":"03d6ffaa"},"id":1}