{"abi":[{"type":"constructor","inputs":[{"name":"initialSupply","type":"uint256","internalType":"uint256"}],"stateMutability":"nonpayable"},{"type":"function","name":"_name","inputs":[],"outputs":[{"name":"","type":"string","internalType":"string"}],"stateMutability":"view"},{"type":"function","name":"_symbol","inputs":[],"outputs":[{"name":"","type":"string","internalType":"string"}],"stateMutability":"view"},{"type":"function","name":"allowance","inputs":[{"name":"owner","type":"address","internalType":"address"},{"name":"spender","type":"address","internalType":"address"}],"outputs":[{"name":"","type":"uint256","internalType":"uint256"}],"stateMutability":"view"},{"type":"function","name":"approve","inputs":[{"name":"spender","type":"address","internalType":"address"},{"name":"value","type":"uint256","internalType":"uint256"}],"outputs":[{"name":"","type":"bool","internalType":"bool"}],"stateMutability":"nonpayable"},{"type":"function","name":"balanceOf","inputs":[{"name":"account","type":"address","internalType":"address"}],"outputs":[{"name":"","type":"uint256","internalType":"uint256"}],"stateMutability":"view"},{"type":"function","name":"decimals","inputs":[],"outputs":[{"name":"","type":"uint8","internalType":"uint8"}],"stateMutability":"view"},{"type":"function","name":"name","inputs":[],"outputs":[{"name":"","type":"string","internalType":"string"}],"stateMutability":"view"},{"type":"function","name":"symbol","inputs":[],"outputs":[{"name":"","type":"string","internalType":"string"}],"stateMutability":"view"},{"type":"function","name":"totalSupply","inputs":[],"outputs":[{"name":"","type":"uint256","internalType":"uint256"}],"stateMutability":"view"},{"type":"function","name":"transfer","inputs":[{"name":"to","type":"address","internalType":"address"},{"name":"value","type":"uint256","internalType":"uint256"}],"outputs":[{"name":"","type":"bool","internalType":"bool"}],"stateMutability":"nonpayable"},{"type":"function","name":"transferFrom","inputs":[{"name":"from","type":"address","internalType":"address"},{"name":"to","type":"address","internalType":"address"},{"name":"value","type":"uint256","internalType":"uint256"}],"outputs":[{"name":"","type":"bool","internalType":"bool"}],"stateMutability":"nonpayable"},{"type":"event","name":"Approval","inputs":[{"name":"owner","type":"address","indexed":true,"internalType":"address"},{"name":"spender","type":"address","indexed":true,"internalType":"address"},{"name":"value","type":"uint256","indexed":false,"internalType":"uint256"}],"anonymous":false},{"type":"event","name":"Mint","inputs":[{"name":"amount","type":"uint256","indexed":true,"internalType":"uint256"}],"anonymous":false},{"type":"event","name":"Transfer","inputs":[{"name":"from","type":"address","indexed":true,"internalType":"address"},{"name":"to","type":"address","indexed":true,"internalType":"address"},{"name":"value","type":"uint256","indexed":false,"internalType":"uint256"}],"anonymous":false},{"type":"error","name":"ERC20InsufficientAllowance","inputs":[{"name":"spender","type":"address","internalType":"address"},{"name":"allowance","type":"uint256","internalType":"uint256"},{"name":"needed","type":"uint256","internalType":"uint256"}]},{"type":"error","name":"ERC20InsufficientBalance","inputs":[{"name":"sender","type":"address","internalType":"address"},{"name":"balance","type":"uint256","internalType":"uint256"},{"name":"needed","type":"uint256","internalType":"uint256"}]},{"type":"error","name":"ERC20InvalidApprover","inputs":[{"name":"approver","type":"address","internalType":"address"}]},{"type":"error","name":"ERC20InvalidReceiver","inputs":[{"name":"receiver","type":"address","internalType":"address"}]},{"type":"error","name":"ERC20InvalidSender","inputs":[{"name":"sender","type":"address","internalType":"address"}]},{"type":"error","name":"ERC20InvalidSpender","inputs":[{"name":"spender","type":"address","internalType":"address"}]}],"bytecode":{"object":"0x60806040526040518060400160405280600781526020017f737078436f696e0000000000000000000000000000000000000000000000000081525060059081610048919061070d565b506040518060400160405280600381526020017f53505800000000000000000000000000000000000000000000000000000000008152506006908161008d919061070d565b50348015610099575f5ffd5b506040516118a33803806118a383398181016040528101906100bb919061080a565b600580546100c890610534565b80601f01602080910402602001604051908101604052809291908181526020018280546100f490610534565b801561013f5780601f106101165761010080835404028352916020019161013f565b820191905f5260205f20905b81548152906001019060200180831161012257829003601f168201915b50505050506006805461015190610534565b80601f016020809104026020016040519081016040528092919081815260200182805461017d90610534565b80156101c85780601f1061019f576101008083540402835291602001916101c8565b820191905f5260205f20905b8154815290600101906020018083116101ab57829003601f168201915b505050505081600390816101dc919061070d565b5080600490816101ec919061070d565b5050506101ff338261023260201b60201c565b807f07883703ed0e86588a40d76551c92f8a4b329e3bf19765e0e6749473c1a8466560405160405180910390a25061094a565b5f73ffffffffffffffffffffffffffffffffffffffff168273ffffffffffffffffffffffffffffffffffffffff16036102a2575f6040517fec442f050000000000000000000000000000000000000000000000000000000081526004016102999190610874565b60405180910390fd5b6102b35f83836102b760201b60201c565b5050565b5f73ffffffffffffffffffffffffffffffffffffffff168373ffffffffffffffffffffffffffffffffffffffff1603610307578060025f8282546102fb91906108ba565b925050819055506103d5565b5f5f5f8573ffffffffffffffffffffffffffffffffffffffff1673ffffffffffffffffffffffffffffffffffffffff1681526020019081526020015f2054905081811015610390578381836040517fe450d38c000000000000000000000000000000000000000000000000000000008152600401610387939291906108fc565b60405180910390fd5b8181035f5f8673ffffffffffffffffffffffffffffffffffffffff1673ffffffffffffffffffffffffffffffffffffffff1681526020019081526020015f2081905550505b5f73ffffffffffffffffffffffffffffffffffffffff168273ffffffffffffffffffffffffffffffffffffffff160361041c578060025f8282540392505081905550610466565b805f5f8473ffffffffffffffffffffffffffffffffffffffff1673ffffffffffffffffffffffffffffffffffffffff1681526020019081526020015f205f82825401925050819055505b8173ffffffffffffffffffffffffffffffffffffffff168373ffffffffffffffffffffffffffffffffffffffff167fddf252ad1be2c89b69c2b068fc378daa952ba7f163c4a11628f55a4df523b3ef836040516104c39190610931565b60405180910390a3505050565b5f81519050919050565b7f4e487b71000000000000000000000000000000000000000000000000000000005f52604160045260245ffd5b7f4e487b71000000000000000000000000000000000000000000000000000000005f52602260045260245ffd5b5f600282049050600182168061054b57607f821691505b60208210810361055e5761055d610507565b5b50919050565b5f819050815f5260205f209050919050565b5f6020601f8301049050919050565b5f82821b905092915050565b5f600883026105c07fffffffffffffffffffffffffffffffffffffffffffffffffffffffffffffffff82610585565b6105ca8683610585565b95508019841693508086168417925050509392505050565b5f819050919050565b5f819050919050565b5f61060e610609610604846105e2565b6105eb565b6105e2565b9050919050565b5f819050919050565b610627836105f4565b61063b61063382610615565b848454610591565b825550505050565b5f5f905090565b610652610643565b61065d81848461061e565b505050565b5b81811015610680576106755f8261064a565b600181019050610663565b5050565b601f8211156106c55761069681610564565b61069f84610576565b810160208510156106ae578190505b6106c26106ba85610576565b830182610662565b50505b505050565b5f82821c905092915050565b5f6106e55f19846008026106ca565b1980831691505092915050565b5f6106fd83836106d6565b9150826002028217905092915050565b610716826104d0565b67ffffffffffffffff81111561072f5761072e6104da565b5b6107398254610534565b610744828285610684565b5f60209050601f831160018114610775575f8415610763578287015190505b61076d85826106f2565b8655506107d4565b601f19841661078386610564565b5f5b828110156107aa57848901518255600182019150602085019450602081019050610785565b868310156107c757848901516107c3601f8916826106d6565b8355505b6001600288020188555050505b505050505050565b5f5ffd5b6107e9816105e2565b81146107f3575f5ffd5b50565b5f81519050610804816107e0565b92915050565b5f6020828403121561081f5761081e6107dc565b5b5f61082c848285016107f6565b91505092915050565b5f73ffffffffffffffffffffffffffffffffffffffff82169050919050565b5f61085e82610835565b9050919050565b61086e81610854565b82525050565b5f6020820190506108875f830184610865565b92915050565b7f4e487b71000000000000000000000000000000000000000000000000000000005f52601160045260245ffd5b5f6108c4826105e2565b91506108cf836105e2565b92508282019050808211156108e7576108e661088d565b5b92915050565b6108f6816105e2565b82525050565b5f60608201905061090f5f830186610865565b61091c60208301856108ed565b61092960408301846108ed565b949350505050565b5f6020820190506109445f8301846108ed565b92915050565b610f4c806109575f395ff3fe608060405234801561000f575f5ffd5b50600436106100a7575f3560e01c806370a082311161006f57806370a082311461016557806395d89b4114610195578063a9059cbb146101b3578063b09f1266146101e3578063d28d885214610201578063dd62ed3e1461021f576100a7565b806306fdde03146100ab578063095ea7b3146100c957806318160ddd146100f957806323b872dd14610117578063313ce56714610147575b5f5ffd5b6100b361024f565b6040516100c09190610bc5565b60405180910390f35b6100e360048036038101906100de9190610c76565b6102df565b6040516100f09190610cce565b60405180910390f35b610101610301565b60405161010e9190610cf6565b60405180910390f35b610131600480360381019061012c9190610d0f565b61030a565b60405161013e9190610cce565b60405180910390f35b61014f610338565b60405161015c9190610d7a565b60405180910390f35b61017f600480360381019061017a9190610d93565b610340565b60405161018c9190610cf6565b60405180910390f35b61019d610385565b6040516101aa9190610bc5565b60405180910390f35b6101cd60048036038101906101c89190610c76565b610415565b6040516101da9190610cce565b60405180910390f35b6101eb610437565b6040516101f89190610bc5565b60405180910390f35b6102096104c3565b6040516102169190610bc5565b60405180910390f35b61023960048036038101906102349190610dbe565b61054f565b6040516102469190610cf6565b60405180910390f35b60606003805461025e90610e29565b80601f016020809104026020016040519081016040528092919081815260200182805461028a90610e29565b80156102d55780601f106102ac576101008083540402835291602001916102d5565b820191905f5260205f20905b8154815290600101906020018083116102b857829003601f168201915b5050505050905090565b5f5f6102e96105d1565b90506102f68185856105d8565b600191505092915050565b5f600254905090565b5f5f6103146105d1565b90506103218582856105ea565b61032c85858561067d565b60019150509392505050565b5f6012905090565b5f5f5f8373ffffffffffffffffffffffffffffffffffffffff1673ffffffffffffffffffffffffffffffffffffffff1681526020019081526020015f20549050919050565b60606004805461039490610e29565b80601f01602080910402602001604051908101604052809291908181526020018280546103c090610e29565b801561040b5780601f106103e25761010080835404028352916020019161040b565b820191905f5260205f20905b8154815290600101906020018083116103ee57829003601f168201915b5050505050905090565b5f5f61041f6105d1565b905061042c81858561067d565b600191505092915050565b6006805461044490610e29565b80601f016020809104026020016040519081016040528092919081815260200182805461047090610e29565b80156104bb5780601f10610492576101008083540402835291602001916104bb565b820191905f5260205f20905b81548152906001019060200180831161049e57829003601f168201915b505050505081565b600580546104d090610e29565b80601f01602080910402602001604051908101604052809291908181526020018280546104fc90610e29565b80156105475780601f1061051e57610100808354040283529160200191610547565b820191905f5260205f20905b81548152906001019060200180831161052a57829003601f168201915b505050505081565b5f60015f8473ffffffffffffffffffffffffffffffffffffffff1673ffffffffffffffffffffffffffffffffffffffff1681526020019081526020015f205f8373ffffffffffffffffffffffffffffffffffffffff1673ffffffffffffffffffffffffffffffffffffffff1681526020019081526020015f2054905092915050565b5f33905090565b6105e5838383600161076d565b505050565b5f6105f5848461054f565b90507fffffffffffffffffffffffffffffffffffffffffffffffffffffffffffffffff8110156106775781811015610668578281836040517ffb8f41b200000000000000000000000000000000000000000000000000000000815260040161065f93929190610e68565b60405180910390fd5b61067684848484035f61076d565b5b50505050565b5f73ffffffffffffffffffffffffffffffffffffffff168373ffffffffffffffffffffffffffffffffffffffff16036106ed575f6040517f96c6fd1e0000000000000000000000000000000000000000000000000000000081526004016106e49190610e9d565b60405180910390fd5b5f73ffffffffffffffffffffffffffffffffffffffff168273ffffffffffffffffffffffffffffffffffffffff160361075d575f6040517fec442f050000000000000000000000000000000000000000000000000000000081526004016107549190610e9d565b60405180910390fd5b61076883838361093c565b505050565b5f73ffffffffffffffffffffffffffffffffffffffff168473ffffffffffffffffffffffffffffffffffffffff16036107dd575f6040517fe602df050000000000000000000000000000000000000000000000000000000081526004016107d49190610e9d565b60405180910390fd5b5f73ffffffffffffffffffffffffffffffffffffffff168373ffffffffffffffffffffffffffffffffffffffff160361084d575f6040517f94280d620000000000000000000000000000000000000000000000000000000081526004016108449190610e9d565b60405180910390fd5b8160015f8673ffffffffffffffffffffffffffffffffffffffff1673ffffffffffffffffffffffffffffffffffffffff1681526020019081526020015f205f8573ffffffffffffffffffffffffffffffffffffffff1673ffffffffffffffffffffffffffffffffffffffff1681526020019081526020015f20819055508015610936578273ffffffffffffffffffffffffffffffffffffffff168473ffffffffffffffffffffffffffffffffffffffff167f8c5be1e5ebec7d5bd14f71427d1e84f3dd0314c0f7b2291e5b200ac8c7c3b9258460405161092d9190610cf6565b60405180910390a35b50505050565b5f73ffffffffffffffffffffffffffffffffffffffff168373ffffffffffffffffffffffffffffffffffffffff160361098c578060025f8282546109809190610ee3565b92505081905550610a5a565b5f5f5f8573ffffffffffffffffffffffffffffffffffffffff1673ffffffffffffffffffffffffffffffffffffffff1681526020019081526020015f2054905081811015610a15578381836040517fe450d38c000000000000000000000000000000000000000000000000000000008152600401610a0c93929190610e68565b60405180910390fd5b8181035f5f8673ffffffffffffffffffffffffffffffffffffffff1673ffffffffffffffffffffffffffffffffffffffff1681526020019081526020015f2081905550505b5f73ffffffffffffffffffffffffffffffffffffffff168273ffffffffffffffffffffffffffffffffffffffff1603610aa1578060025f8282540392505081905550610aeb565b805f5f8473ffffffffffffffffffffffffffffffffffffffff1673ffffffffffffffffffffffffffffffffffffffff1681526020019081526020015f205f82825401925050819055505b8173ffffffffffffffffffffffffffffffffffffffff168373ffffffffffffffffffffffffffffffffffffffff167fddf252ad1be2c89b69c2b068fc378daa952ba7f163c4a11628f55a4df523b3ef83604051610b489190610cf6565b60405180910390a3505050565b5f81519050919050565b5f82825260208201905092915050565b8281835e5f83830152505050565b5f601f19601f8301169050919050565b5f610b9782610b55565b610ba18185610b5f565b9350610bb1818560208601610b6f565b610bba81610b7d565b840191505092915050565b5f6020820190508181035f830152610bdd8184610b8d565b905092915050565b5f5ffd5b5f73ffffffffffffffffffffffffffffffffffffffff82169050919050565b5f610c1282610be9565b9050919050565b610c2281610c08565b8114610c2c575f5ffd5b50565b5f81359050610c3d81610c19565b92915050565b5f819050919050565b610c5581610c43565b8114610c5f575f5ffd5b50565b5f81359050610c7081610c4c565b92915050565b5f5f60408385031215610c8c57610c8b610be5565b5b5f610c9985828601610c2f565b9250506020610caa85828601610c62565b9150509250929050565b5f8115159050919050565b610cc881610cb4565b82525050565b5f602082019050610ce15f830184610cbf565b92915050565b610cf081610c43565b82525050565b5f602082019050610d095f830184610ce7565b92915050565b5f5f5f60608486031215610d2657610d25610be5565b5b5f610d3386828701610c2f565b9350506020610d4486828701610c2f565b9250506040610d5586828701610c62565b9150509250925092565b5f60ff82169050919050565b610d7481610d5f565b82525050565b5f602082019050610d8d5f830184610d6b565b92915050565b5f60208284031215610da857610da7610be5565b5b5f610db584828501610c2f565b91505092915050565b5f5f60408385031215610dd457610dd3610be5565b5b5f610de185828601610c2f565b9250506020610df285828601610c2f565b9150509250929050565b7f4e487b71000000000000000000000000000000000000000000000000000000005f52602260045260245ffd5b5f6002820490506001821680610e4057607f821691505b602082108103610e5357610e52610dfc565b5b50919050565b610e6281610c08565b82525050565b5f606082019050610e7b5f830186610e59565b610e886020830185610ce7565b610e956040830184610ce7565b949350505050565b5f602082019050610eb05f830184610e59565b92915050565b7f4e487b71000000000000000000000000000000000000000000000000000000005f52601160045260245ffd5b5f610eed82610c43565b9150610ef883610c43565b9250828201905080821115610f1057610f0f610eb6565b5b9291505056fea264697066735822122001d2609eea07dc47a7cb03fe7120b749ed98e8f42724d329e4c7a8d1c8e3603c64736f6c634300081c0033","linkReferences":{}},"methodIdentifiers":{"_name()":"d28d8852","_symbol()":"b09f1266","allowance(address,address)":"dd62ed3e","approve(address,uint256)":"095ea7b3","balanceOf(address)":"70a08231","decimals()":"313ce567","name()":"06fdde03","symbol()":"95d89b41","totalSupply()":"18160ddd","transfer(address,uint256)":"a9059cbb","transferFrom(address,address,uint256)":"23b872dd"},"id":3}