{"abi":[{"type":"constructor","inputs":[{"name":"_spxCoin","type":"address","internalType":"contract spxCoin"},{"name":"_spxNFT","type":"address","internalType":"contract spxNFT"}],"stateMutability":"nonpayable"},{"type":"function","name":"buyNFT","inputs":[{"name":"nftId","type":"uint256","internalType":"uint256"},{"name":"sig","type":"bytes","internalType":"bytes"}],"outputs":[],"stateMutability":"nonpayable"},{"type":"function","name":"coin","inputs":[],"outputs":[{"name":"","type":"address","internalType":"contract spxCoin"}],"stateMutability":"view"},{"type":"function","name":"getSignature","inputs":[{"name":"signature","type":"bytes","internalType":"bytes"}],"outputs":[],"stateMutability":"nonpayable"},{"type":"function","name":"getSignatureResult","inputs":[{"name":"sig","type":"bytes","internalType":"bytes"}],"outputs":[{"name":"","type":"bool","internalType":"bool"}],"stateMutability":"view"},{"type":"function","name":"nft","inputs":[],"outputs":[{"name":"","type":"address","internalType":"contract spxNFT"}],"stateMutability":"view"},{"type":"function","name":"nftPrices","inputs":[{"name":"","type":"uint256","internalType":"uint256"}],"outputs":[{"name":"","type":"uint256","internalType":"uint256"}],"stateMutability":"view"},{"type":"function","name":"owner","inputs":[],"outputs":[{"name":"","type":"address","internalType":"address"}],"stateMutability":"view"},{"type":"function","name":"renounceOwnership","inputs":[],"outputs":[],"stateMutability":"nonpayable"},{"type":"function","name":"setPrice","inputs":[{"name":"nftId","type":"uint256","internalType":"uint256"},{"name":"price","type":"uint256","internalType":"uint256"}],"outputs":[],"stateMutability":"nonpayable"},{"type":"function","name":"setTSSPublicKey","inputs":[{"name":"publicKey","type":"bytes","internalType":"bytes"}],"outputs":[],"stateMutability":"nonpayable"},{"type":"function","name":"transferOwnership","inputs":[{"name":"newOwner","type":"address","internalType":"address"}],"outputs":[],"stateMutability":"nonpayable"},{"type":"function","name":"tssPublicKey","inputs":[],"outputs":[{"name":"","type":"bytes","internalType":"bytes"}],"stateMutability":"view"},{"type":"function","name":"tssSignature","inputs":[],"outputs":[{"name":"","type":"bytes","internalType":"bytes"}],"stateMutability":"view"},{"type":"event","name":"NFTBought","inputs":[{"name":"nftId","type":"uint256","indexed":true,"internalType":"uint256"},{"name":"buyer","type":"address","indexed":true,"internalType":"address"},{"name":"price","type":"uint256","indexed":false,"internalType":"uint256"}],"anonymous":false},{"type":"event","name":"OwnershipTransferred","inputs":[{"name":"previousOwner","type":"address","indexed":true,"internalType":"address"},{"name":"newOwner","type":"address","indexed":true,"internalType":"address"}],"anonymous":false},{"type":"event","name":"TSSSignatureVerified","inputs":[{"name":"publicKey","type":"bytes","indexed":true,"internalType":"bytes"},{"name":"signature","type":"bytes","indexed":true,"internalType":"bytes"}],"anonymous":false},{"type":"error","name":"OwnableInvalidOwner","inputs":[{"name":"owner","type":"address","internalType":"address"}]},{"type":"error","name":"OwnableUnauthorizedAccount","inputs":[{"name":"account","type":"address","internalType":"address"}]}],"bytecode":{"object":"0x608060405234801561000f575f5ffd5b50604051611ce0380380611ce0833981810160405281019061003191906102a4565b335f73ffffffffffffffffffffffffffffffffffffffff168173ffffffffffffffffffffffffffffffffffffffff16036100a2575f6040517f1e4fbdf700000000000000000000000000000000000000000000000000000000815260040161009991906102f1565b60405180910390fd5b6100b18161013960201b60201c565b508160015f6101000a81548173ffffffffffffffffffffffffffffffffffffffff021916908373ffffffffffffffffffffffffffffffffffffffff1602179055508060025f6101000a81548173ffffffffffffffffffffffffffffffffffffffff021916908373ffffffffffffffffffffffffffffffffffffffff160217905550505061030a565b5f5f5f9054906101000a900473ffffffffffffffffffffffffffffffffffffffff169050815f5f6101000a81548173ffffffffffffffffffffffffffffffffffffffff021916908373ffffffffffffffffffffffffffffffffffffffff1602179055508173ffffffffffffffffffffffffffffffffffffffff168173ffffffffffffffffffffffffffffffffffffffff167f8be0079c531659141344cd1fd0a4f28419497f9722a3daafe3b4186f6b6457e060405160405180910390a35050565b5f5ffd5b5f73ffffffffffffffffffffffffffffffffffffffff82169050919050565b5f610227826101fe565b9050919050565b5f6102388261021d565b9050919050565b6102488161022e565b8114610252575f5ffd5b50565b5f815190506102638161023f565b92915050565b5f6102738261021d565b9050919050565b61028381610269565b811461028d575f5ffd5b50565b5f8151905061029e8161027a565b92915050565b5f5f604083850312156102ba576102b96101fa565b5b5f6102c785828601610255565b92505060206102d885828601610290565b9150509250929050565b6102eb8161021d565b82525050565b5f6020820190506103045f8301846102e2565b92915050565b6119c9806103175f395ff3fe608060405234801561000f575f5ffd5b50600436106100cd575f3560e01c80638da5cb5b1161008a578063c3917ca711610064578063c3917ca7146101d9578063d9f10a2b146101f5578063f2fde38b14610225578063f7d9757714610241576100cd565b80638da5cb5b1461016d57806391c307151461018b5780639fde0677146101a9576100cd565b806307ea38dd146100d157806311df9995146100ef5780631ed113ae1461010d57806347ccca0214610129578063715018a614610147578063815d889e14610151575b5f5ffd5b6100d961025d565b6040516100e69190610e54565b60405180910390f35b6100f76102e9565b6040516101049190610eee565b60405180910390f35b61012760048036038101906101229190611044565b61030e565b005b610131610329565b60405161013e91906110ab565b60405180910390f35b61014f61034e565b005b61016b600480360381019061016691906110f7565b610361565b005b610175610918565b6040516101829190611171565b60405180910390f35b61019361093f565b6040516101a09190610e54565b60405180910390f35b6101c360048036038101906101be9190611044565b6109cb565b6040516101d091906111a4565b60405180910390f35b6101f360048036038101906101ee9190611044565b610ac1565b005b61020f600480360381019061020a91906111bd565b610adc565b60405161021c91906111f7565b60405180910390f35b61023f600480360381019061023a919061123a565b610af1565b005b61025b60048036038101906102569190611265565b610b75565b005b6004805461026a906112d0565b80601f0160208091040260200160405190810160405280929190818152602001828054610296906112d0565b80156102e15780601f106102b8576101008083540402835291602001916102e1565b820191905f5260205f20905b8154815290600101906020018083116102c457829003601f168201915b505050505081565b60015f9054906101000a900473ffffffffffffffffffffffffffffffffffffffff1681565b610316610c95565b80600490816103259190611497565b5050565b60025f9054906101000a900473ffffffffffffffffffffffffffffffffffffffff1681565b610356610c95565b61035f5f610d1c565b565b806001151561036f826109cb565b1515146103b1576040517f08c379a00000000000000000000000000000000000000000000000000000000081526004016103a8906115c0565b60405180910390fd5b5f60055f8581526020019081526020015f205490505f8111610408576040517f08c379a00000000000000000000000000000000000000000000000000000000081526004016103ff90611628565b60405180910390fd5b8060015f9054906101000a900473ffffffffffffffffffffffffffffffffffffffff1673ffffffffffffffffffffffffffffffffffffffff166370a08231336040518263ffffffff1660e01b81526004016104639190611171565b602060405180830381865afa15801561047e573d5f5f3e3d5ffd5b505050506040513d601f19601f820116820180604052508101906104a2919061165a565b10156104e3576040517f08c379a00000000000000000000000000000000000000000000000000000000081526004016104da906116cf565b60405180910390fd5b60025f9054906101000a900473ffffffffffffffffffffffffffffffffffffffff1673ffffffffffffffffffffffffffffffffffffffff1663e985e9c560025f9054906101000a900473ffffffffffffffffffffffffffffffffffffffff1673ffffffffffffffffffffffffffffffffffffffff16636352211e876040518263ffffffff1660e01b815260040161057a91906111f7565b602060405180830381865afa158015610595573d5f5f3e3d5ffd5b505050506040513d601f19601f820116820180604052508101906105b99190611701565b306040518363ffffffff1660e01b81526004016105d792919061172c565b602060405180830381865afa1580156105f2573d5f5f3e3d5ffd5b505050506040513d601f19601f82011682018060405250810190610616919061177d565b610655576040517f08c379a000000000000000000000000000000000000000000000000000000000815260040161064c906117f2565b60405180910390fd5b60015f9054906101000a900473ffffffffffffffffffffffffffffffffffffffff1673ffffffffffffffffffffffffffffffffffffffff166323b872dd3360025f9054906101000a900473ffffffffffffffffffffffffffffffffffffffff1673ffffffffffffffffffffffffffffffffffffffff16636352211e886040518263ffffffff1660e01b81526004016106ed91906111f7565b602060405180830381865afa158015610708573d5f5f3e3d5ffd5b505050506040513d601f19601f8201168201806040525081019061072c9190611701565b846040518463ffffffff1660e01b815260040161074b93929190611810565b6020604051808303815f875af1158015610767573d5f5f3e3d5ffd5b505050506040513d601f19601f8201168201806040525081019061078b919061177d565b5060025f9054906101000a900473ffffffffffffffffffffffffffffffffffffffff1673ffffffffffffffffffffffffffffffffffffffff166342842e0e60025f9054906101000a900473ffffffffffffffffffffffffffffffffffffffff1673ffffffffffffffffffffffffffffffffffffffff16636352211e876040518263ffffffff1660e01b815260040161082391906111f7565b602060405180830381865afa15801561083e573d5f5f3e3d5ffd5b505050506040513d601f19601f820116820180604052508101906108629190611701565b33876040518463ffffffff1660e01b815260040161088293929190611810565b5f604051808303815f87803b158015610899575f5ffd5b505af11580156108ab573d5f5f3e3d5ffd5b5050505060055f8581526020019081526020015f205f90553373ffffffffffffffffffffffffffffffffffffffff16847f26701af1547d690b8c46ed5f0fbb8d5b115492b3b898f3dfc2e87b26cfcc1b148360405161090a91906111f7565b60405180910390a350505050565b5f5f5f9054906101000a900473ffffffffffffffffffffffffffffffffffffffff16905090565b6003805461094c906112d0565b80601f0160208091040260200160405190810160405280929190818152602001828054610978906112d0565b80156109c35780601f1061099a576101008083540402835291602001916109c3565b820191905f5260205f20905b8154815290600101906020018083116109a657829003601f168201915b505050505081565b5f5f8251036109dc575f9050610abc565b5f600380546109ea906112d0565b80601f0160208091040260200160405190810160405280929190818152602001828054610a16906112d0565b8015610a615780601f10610a3857610100808354040283529160200191610a61565b820191905f5260205f20905b815481529060010190602001808311610a4457829003601f168201915b505050505090506003604051602001610a7a91906118cf565b6040516020818303038152906040528051906020012081604051602001610aa19190611915565b60405160208183030381529060405280519060200120149150505b919050565b610ac9610c95565b8060039081610ad89190611497565b5050565b6005602052805f5260405f205f915090505481565b610af9610c95565b5f73ffffffffffffffffffffffffffffffffffffffff168173ffffffffffffffffffffffffffffffffffffffff1603610b69575f6040517f1e4fbdf7000000000000000000000000000000000000000000000000000000008152600401610b609190611171565b60405180910390fd5b610b7281610d1c565b50565b3373ffffffffffffffffffffffffffffffffffffffff1660025f9054906101000a900473ffffffffffffffffffffffffffffffffffffffff1673ffffffffffffffffffffffffffffffffffffffff16636352211e846040518263ffffffff1660e01b8152600401610be691906111f7565b602060405180830381865afa158015610c01573d5f5f3e3d5ffd5b505050506040513d601f19601f82011682018060405250810190610c259190611701565b73ffffffffffffffffffffffffffffffffffffffff1614610c7b576040517f08c379a0000000000000000000000000000000000000000000000000000000008152600401610c7290611975565b60405180910390fd5b8060055f8481526020019081526020015f20819055505050565b610c9d610ddd565b73ffffffffffffffffffffffffffffffffffffffff16610cbb610918565b73ffffffffffffffffffffffffffffffffffffffff1614610d1a57610cde610ddd565b6040517f118cdaa7000000000000000000000000000000000000000000000000000000008152600401610d119190611171565b60405180910390fd5b565b5f5f5f9054906101000a900473ffffffffffffffffffffffffffffffffffffffff169050815f5f6101000a81548173ffffffffffffffffffffffffffffffffffffffff021916908373ffffffffffffffffffffffffffffffffffffffff1602179055508173ffffffffffffffffffffffffffffffffffffffff168173ffffffffffffffffffffffffffffffffffffffff167f8be0079c531659141344cd1fd0a4f28419497f9722a3daafe3b4186f6b6457e060405160405180910390a35050565b5f33905090565b5f81519050919050565b5f82825260208201905092915050565b8281835e5f83830152505050565b5f601f19601f8301169050919050565b5f610e2682610de4565b610e308185610dee565b9350610e40818560208601610dfe565b610e4981610e0c565b840191505092915050565b5f6020820190508181035f830152610e6c8184610e1c565b905092915050565b5f73ffffffffffffffffffffffffffffffffffffffff82169050919050565b5f819050919050565b5f610eb6610eb1610eac84610e74565b610e93565b610e74565b9050919050565b5f610ec782610e9c565b9050919050565b5f610ed882610ebd565b9050919050565b610ee881610ece565b82525050565b5f602082019050610f015f830184610edf565b92915050565b5f604051905090565b5f5ffd5b5f5ffd5b5f5ffd5b5f5ffd5b7f4e487b71000000000000000000000000000000000000000000000000000000005f52604160045260245ffd5b610f5682610e0c565b810181811067ffffffffffffffff82111715610f7557610f74610f20565b5b80604052505050565b5f610f87610f07565b9050610f938282610f4d565b919050565b5f67ffffffffffffffff821115610fb257610fb1610f20565b5b610fbb82610e0c565b9050602081019050919050565b828183375f83830152505050565b5f610fe8610fe384610f98565b610f7e565b90508281526020810184848401111561100457611003610f1c565b5b61100f848285610fc8565b509392505050565b5f82601f83011261102b5761102a610f18565b5b813561103b848260208601610fd6565b91505092915050565b5f6020828403121561105957611058610f10565b5b5f82013567ffffffffffffffff81111561107657611075610f14565b5b61108284828501611017565b91505092915050565b5f61109582610ebd565b9050919050565b6110a58161108b565b82525050565b5f6020820190506110be5f83018461109c565b92915050565b5f819050919050565b6110d6816110c4565b81146110e0575f5ffd5b50565b5f813590506110f1816110cd565b92915050565b5f5f6040838503121561110d5761110c610f10565b5b5f61111a858286016110e3565b925050602083013567ffffffffffffffff81111561113b5761113a610f14565b5b61114785828601611017565b9150509250929050565b5f61115b82610e74565b9050919050565b61116b81611151565b82525050565b5f6020820190506111845f830184611162565b92915050565b5f8115159050919050565b61119e8161118a565b82525050565b5f6020820190506111b75f830184611195565b92915050565b5f602082840312156111d2576111d1610f10565b5b5f6111df848285016110e3565b91505092915050565b6111f1816110c4565b82525050565b5f60208201905061120a5f8301846111e8565b92915050565b61121981611151565b8114611223575f5ffd5b50565b5f8135905061123481611210565b92915050565b5f6020828403121561124f5761124e610f10565b5b5f61125c84828501611226565b91505092915050565b5f5f6040838503121561127b5761127a610f10565b5b5f611288858286016110e3565b9250506020611299858286016110e3565b9150509250929050565b7f4e487b71000000000000000000000000000000000000000000000000000000005f52602260045260245ffd5b5f60028204905060018216806112e757607f821691505b6020821081036112fa576112f96112a3565b5b50919050565b5f819050815f5260205f209050919050565b5f6020601f8301049050919050565b5f82821b905092915050565b5f6008830261135c7fffffffffffffffffffffffffffffffffffffffffffffffffffffffffffffffff82611321565b6113668683611321565b95508019841693508086168417925050509392505050565b5f61139861139361138e846110c4565b610e93565b6110c4565b9050919050565b5f819050919050565b6113b18361137e565b6113c56113bd8261139f565b84845461132d565b825550505050565b5f5f905090565b6113dc6113cd565b6113e78184846113a8565b505050565b5b8181101561140a576113ff5f826113d4565b6001810190506113ed565b5050565b601f82111561144f5761142081611300565b61142984611312565b81016020851015611438578190505b61144c61144485611312565b8301826113ec565b50505b505050565b5f82821c905092915050565b5f61146f5f1984600802611454565b1980831691505092915050565b5f6114878383611460565b9150826002028217905092915050565b6114a082610de4565b67ffffffffffffffff8111156114b9576114b8610f20565b5b6114c382546112d0565b6114ce82828561140e565b5f60209050601f8311600181146114ff575f84156114ed578287015190505b6114f7858261147c565b86555061155e565b601f19841661150d86611300565b5f5b828110156115345784890151825560018201915060208501945060208101905061150f565b86831015611551578489015161154d601f891682611460565b8355505b6001600288020188555050505b505050505050565b5f82825260208201905092915050565b7f5369676e617475726520766572696669636174696f6e206661696c65640000005f82015250565b5f6115aa601d83611566565b91506115b582611576565b602082019050919050565b5f6020820190508181035f8301526115d78161159e565b9050919050565b7f4e4654206973206e6f7420666f722073616c65000000000000000000000000005f82015250565b5f611612601383611566565b915061161d826115de565b602082019050919050565b5f6020820190508181035f83015261163f81611606565b9050919050565b5f81519050611654816110cd565b92915050565b5f6020828403121561166f5761166e610f10565b5b5f61167c84828501611646565b91505092915050565b7f496e73756666696369656e742062616c616e63650000000000000000000000005f82015250565b5f6116b9601483611566565b91506116c482611685565b602082019050919050565b5f6020820190508181035f8301526116e6816116ad565b9050919050565b5f815190506116fb81611210565b92915050565b5f6020828403121561171657611715610f10565b5b5f611723848285016116ed565b91505092915050565b5f60408201905061173f5f830185611162565b61174c6020830184611162565b9392505050565b61175c8161118a565b8114611766575f5ffd5b50565b5f8151905061177781611753565b92915050565b5f6020828403121561179257611791610f10565b5b5f61179f84828501611769565b91505092915050565b7f4d61726b6574706c616365206e6f7420617070726f76656400000000000000005f82015250565b5f6117dc601883611566565b91506117e7826117a8565b602082019050919050565b5f6020820190508181035f830152611809816117d0565b9050919050565b5f6060820190506118235f830186611162565b6118306020830185611162565b61183d60408301846111e8565b949350505050565b5f81905092915050565b5f815461185b816112d0565b6118658186611845565b9450600182165f811461187f5760018114611894576118c6565b60ff19831686528115158202860193506118c6565b61189d85611300565b5f5b838110156118be5781548189015260018201915060208101905061189f565b838801955050505b50505092915050565b5f6118da828461184f565b915081905092915050565b5f6118ef82610de4565b6118f98185611845565b9350611909818560208601610dfe565b80840191505092915050565b5f61192082846118e5565b915081905092915050565b7f4f6e6c7920746865206f776e65722063616e20736574207468652070726963655f82015250565b5f61195f602083611566565b915061196a8261192b565b602082019050919050565b5f6020820190508181035f83015261198c81611953565b905091905056fea2646970667358221220e9d0a4df70dfb2b8b091d3d5a36597928544b29a841078704889b2b805349b2264736f6c634300081c0033","linkReferences":{}},"methodIdentifiers":{"buyNFT(uint256,bytes)":"815d889e","coin()":"11df9995","getSignature(bytes)":"1ed113ae","getSignatureResult(bytes)":"9fde0677","nft()":"47ccca02","nftPrices(uint256)":"d9f10a2b","owner()":"8da5cb5b","renounceOwnership()":"715018a6","setPrice(uint256,uint256)":"f7d97577","setTSSPublicKey(bytes)":"c3917ca7","transferOwnership(address)":"f2fde38b","tssPublicKey()":"91c30715","tssSignature()":"07ea38dd"},"id":3}