{"abi":[{"type":"constructor","inputs":[{"name":"_verifier","type":"address","internalType":"contract IRiscZeroVerifier"}],"stateMutability":"nonpayable"},{"type":"function","name":"check","inputs":[],"outputs":[{"name":"","type":"uint128","internalType":"uint128"}],"stateMutability":"view"},{"type":"function","name":"get","inputs":[],"outputs":[{"name":"","type":"bool","internalType":"bool"}],"stateMutability":"view"},{"type":"function","name":"getCheck","inputs":[],"outputs":[{"name":"","type":"uint128","internalType":"uint128"}],"stateMutability":"view"},{"type":"function","name":"imageId","inputs":[],"outputs":[{"name":"","type":"bytes32","internalType":"bytes32"}],"stateMutability":"view"},{"type":"function","name":"isValidZKProof","inputs":[],"outputs":[{"name":"","type":"bool","internalType":"bool"}],"stateMutability":"view"},{"type":"function","name":"set","inputs":[{"name":"seal","type":"bytes","internalType":"bytes"}],"outputs":[],"stateMutability":"nonpayable"},{"type":"function","name":"verifier","inputs":[],"outputs":[{"name":"","type":"address","internalType":"contract IRiscZeroVerifier"}],"stateMutability":"view"}],"bytecode":{"object":"0x60a060405234801561000f575f5ffd5b506040516108bb3803806108bb8339818101604052810190610031919061012a565b8073ffffffffffffffffffffffffffffffffffffffff1660808173ffffffffffffffffffffffffffffffffffffffff16815250505f5f5f6101000a81548160ff0219169083151502179055505f5f60016101000a8154816fffffffffffffffffffffffffffffffff02191690836fffffffffffffffffffffffffffffffff16021790555050610155565b5f5ffd5b5f73ffffffffffffffffffffffffffffffffffffffff82169050919050565b5f6100e8826100bf565b9050919050565b5f6100f9826100de565b9050919050565b610109816100ef565b8114610113575f5ffd5b50565b5f8151905061012481610100565b92915050565b5f6020828403121561013f5761013e6100bb565b5b5f61014c84828501610116565b91505092915050565b6080516107476101745f395f8181610175015261032d01526107475ff3fe608060405234801561000f575f5ffd5b506004361061007b575f3560e01c806365e7c7591161005957806365e7c759146100d75780636d4ce63c146100f5578063919840ad14610113578063ef3f7dd5146101315761007b565b80630399321e1461007f5780631ca9f98b1461009b5780632b7ac3f3146100b9575b5f5ffd5b61009960048036038101906100949190610437565b61014f565b005b6100a361031a565b6040516100b0919061049c565b60405180910390f35b6100c161032b565b6040516100ce919061052f565b60405180910390f35b6100df61034f565b6040516100ec9190610572565b60405180910390f35b6100fd610373565b60405161010a919061049c565b60405180910390f35b61011b610387565b6040516101289190610572565b60405180910390f35b6101396103a8565b60405161014691906105a3565b60405180910390f35b5f6001604051602001610162919061049c565b60405160208183030381529060405290507f000000000000000000000000000000000000000000000000000000000000000073ffffffffffffffffffffffffffffffffffffffff1663ab750e7584847f36f67a7adfde9a6f646d67191d4b88fc9c97e7366e8eb3da392c6893a13b5d025f1b6002866040516101e4919061060e565b602060405180830381855afa1580156101ff573d5f5f3e3d5ffd5b5050506040513d601f19601f82011682018060405250810190610222919061064e565b6040518563ffffffff1660e01b815260040161024194939291906106d3565b5f6040518083038186803b158015610257575f5ffd5b505afa925050508015610268575060015b6102c2575f5f5f6101000a81548160ff02191690831515021790555060025f60016101000a8154816fffffffffffffffffffffffffffffffff02191690836fffffffffffffffffffffffffffffffff160217905550610315565b60015f5f6101000a81548160ff02191690831515021790555060015f60016101000a8154816fffffffffffffffffffffffffffffffff02191690836fffffffffffffffffffffffffffffffff1602179055505b505050565b5f5f9054906101000a900460ff1681565b7f000000000000000000000000000000000000000000000000000000000000000081565b5f5f60019054906101000a90046fffffffffffffffffffffffffffffffff16905090565b5f5f5f9054906101000a900460ff16905090565b5f60019054906101000a90046fffffffffffffffffffffffffffffffff1681565b7f36f67a7adfde9a6f646d67191d4b88fc9c97e7366e8eb3da392c6893a13b5d025f1b81565b5f5ffd5b5f5ffd5b5f5ffd5b5f5ffd5b5f5ffd5b5f5f83601f8401126103f7576103f66103d6565b5b8235905067ffffffffffffffff811115610414576104136103da565b5b6020830191508360018202830111156104305761042f6103de565b5b9250929050565b5f5f6020838503121561044d5761044c6103ce565b5b5f83013567ffffffffffffffff81111561046a576104696103d2565b5b610476858286016103e2565b92509250509250929050565b5f8115159050919050565b61049681610482565b82525050565b5f6020820190506104af5f83018461048d565b92915050565b5f73ffffffffffffffffffffffffffffffffffffffff82169050919050565b5f819050919050565b5f6104f76104f26104ed846104b5565b6104d4565b6104b5565b9050919050565b5f610508826104dd565b9050919050565b5f610519826104fe565b9050919050565b6105298161050f565b82525050565b5f6020820190506105425f830184610520565b92915050565b5f6fffffffffffffffffffffffffffffffff82169050919050565b61056c81610548565b82525050565b5f6020820190506105855f830184610563565b92915050565b5f819050919050565b61059d8161058b565b82525050565b5f6020820190506105b65f830184610594565b92915050565b5f81519050919050565b5f81905092915050565b8281835e5f83830152505050565b5f6105e8826105bc565b6105f281856105c6565b93506106028185602086016105d0565b80840191505092915050565b5f61061982846105de565b915081905092915050565b61062d8161058b565b8114610637575f5ffd5b50565b5f8151905061064881610624565b92915050565b5f60208284031215610663576106626103ce565b5b5f6106708482850161063a565b91505092915050565b5f82825260208201905092915050565b828183375f83830152505050565b5f601f19601f8301169050919050565b5f6106b28385610679565b93506106bf838584610689565b6106c883610697565b840190509392505050565b5f6060820190508181035f8301526106ec8186886106a7565b90506106fb6020830185610594565b6107086040830184610594565b9594505050505056fea2646970667358221220d98ea2f3c243fa26283e27599c38918202ba9ee07275b527b663c7f47be8d76964736f6c634300081c0033","linkReferences":{}},"methodIdentifiers":{"check()":"919840ad","get()":"6d4ce63c","getCheck()":"65e7c759","imageId()":"ef3f7dd5","isValidZKProof()":"1ca9f98b","set(bytes)":"0399321e","verifier()":"2b7ac3f3"},"id":2}